:10000000000000308A004B28A401A300FF30A307A2
:10001000031CA407031C47280330A200E63012206B
:100020000628A201FC3EA100A209031C1D28FF30E6
:100030000000A10703181828A1070000A20F172825
:100040000800013EA8000A30A300A4012B20A80B41
:10005000262825080800A601A5011030A700220DBA
:10006000A50DA60D2308A5022408031C240FA60233
:10007000031841282308A50724080318240FA607FE
:100080000310A10DA20DA70B2F2821080800831330
:1000900083120313080083120313831603178801C6
:1000A0008901831287018801383083160313850084
:1000B000FF308600803087000317880189013F30B8
:1000C00083120313AD000630AE005B30AF004F303B
:1000D000B0006630B1006D30B2007D30B300073043
:1000E000B4007F30B5006730B600AB018A110A1248
:1000F0008A208A110A129F208A110A12CD208A11A1
:100100000A12EF208A110A1211218A110A123421CF
:100110008A017628A2012B08A10000308A01212043
:10012000B700A2012B08A10001308A012120B800EC
:10013000A2012B08A10002308A012120B90005117B
:100140008510051037082D3E840000088700051132
:100150008510051405308A0104200511851005104D
:1001600038082D3E8400000887000511851405100D
:1001700005308A01042005118510051039082D3E2F
:1001800084000008870005158510051005308A01D8
:10019000042005118510051008008A110A1285191E
:1001A000EE2814308A0104208A110A128519EE28DB
:1001B0008A110A12851DEC2814308A0104208A1144
:1001C0000A12851DE728AB0A8A110A12E9288A015A
:1001D000D8288A110A12EE288A01D82808008A1124
:1001E0000A12051A102914308A0104208A110A12F1
:1001F000051A10298A110A12051E0E2914308A01C7
:1002000004208A110A12051E0929AB038A110A1259
:100210000B298A01FA288A110A1210298A01FA2860
:1002200008008A110A12851A332914308A01042021
:100230008A110A12851A33298A110A12851E312958
:1002400014308A0104208A110A12851E2C290608FE
:10025000AC008A110A122E298A011C298A110A125D
:1002600033298A011C2908008A110A12871B542984
:1002700014308A0104208A110A12871B54298A111A
:100280000A12871F522914308A0104208A110A1287
:10029000871F4D298A110A124F298A013F298A1185
:0E02A0000A1254298A013F2908008A015529B3
:02400E00FF3F72
:02401000FF3F70
:00000001FF
